:020000040800F2
:1000000028040020150300085D0300085F030008B2
:1000100063030008670300086B030008000000008A
:100020000000000000000000000000006F03000856
:100030007103000800000000730300087503000846
:100040002F0300082F0300082F0300087B0300087C
:100050002F0300082F030008770300082F03000870
:100060002F0300082F0300082F0300082F030008A8
:100070002F0300082F0300082F0300082F03000898
:100080002F0300082F0300082F0300082F03000888
:100090002F0300082F0300082F0300082F03000878
:1000A0002F0300082F0300082F0300082F03000868
:1000B0002F0300082F0300082F0300082F03000858
:1000C0002F0300082F0300082F0300082F03000848
:1000D0002F03000827110008790300082F030008E8
:1000E0002F0300082F0300082F0300082F03000828
:1000F0002F0300082F0300082F0300082F03000818
:100100002F0300082F0300082F0300082F03000807
:100110002F0300082F0300082F0300082F030008F7
:100120002F0300082F0300082F0300082F030008E7
:10013000DFF80CD001F00CF8004800473903000844
:100140002804002000210020674A126842F480320F
:10015000654B1A6000BF644A126802F40030491C03
:1001600010B9B1F5A06FF6D15F4A126812F4003FE2
:1001700001D0012000E00020012842D15B4A126832
:1001800042F01002594B1A601A46126822F003021C
:100190001A601A46126842F002021A60524A526805
:1001A000514B5A601A4652685A601A46526842F4D5
:1001B00080625A601A46526822F47C125A601A46CB
:1001C000526842F450225A601A46126842F0807215
:1001D0001A6000BF444A126812F0007FFAD0424A07
:1001E000526822F00302404B5A601A46526842F0AD
:1001F00002025A6000BF3C4A526802F00C02082A10
:10020000F9D1704710B5FFF79DFF10BD10B5364806
:10021000006840F0010034490860084640683449ED
:1002200008403149486008460068324908402E4974
:1002300008600846006820F480200860084640688E
:1002400020F4FE0048604FF41F008860FFF7DAFFDB
:100250004FF000602849086010BD10B50021002053
:100260000022214B5B6803F00C0121B1042906D068
:10027000082928D107E0214B214C236027E0214B9E
:100280001F4C236023E0184B5B6803F47010164B7F
:100290005B6803F48032022303EB904022B91A4BCF
:1002A0004343174C23600DE00F4B5B6813F4003F92
:1002B00004D0164B4343124C236003E0114B4343DD
:1002C0000F4C236003E00D4B0D4C236000BF00BFBB
:1002D000054B5B68C3F303130D4CE15C084B1B68D3
:1002E000CB40074C236010BD0010024000200240AC
:1002F0000000FFF8FFFFF6FE08ED00E000127A00B4
:1003000000000020001BB70000093D00808D5B004D
:10031000040000200648804706480047FEE7FEE745
:10032000FEE7FEE7FEE7FEE7FEE7FEE7FEE7FEE7A5
:100330000D020008310100080121142000F0A0FB8B
:100340004FF4A06000F01AF84FF4E13000F0A0FE86
:1003500000F016FE01E000F06DFEFCE7704700BF04
:10036000FEE700BFFEE700BFFEE700BFFEE7704705
:100370007047704770477047704770473149014375
:10038000314A1160704770B5002100230F22C478F4
:100390000CB32D4C246804F4E064C4F5E064210A35
:1003A000C1F10403CA40447804FA03F1847814408C
:1003B00021430901254C0678A155047804F01F0556
:1003C0000124AC4005786D114FF0E02606EB850561
:1003D000C5F8004109E0047804F01F050124AC4091
:1003E0001B4D0678761145F8264070BD194A0A4023
:1003F0000243154B1B1F1A60704739B1124A121D78
:1004000012680243104B1B1D1A6006E00E4A121DB3
:10041000126882430C4B1B1D1A607047042808D1D8
:100420004FF0E021096941F004014FF0E022116131
:1004300007E04FF0E021096921F004014FF0E022CC
:10044000116170470000FA050CED00E000E400E0E7
:1004500080E100E080FFFF1F10B50446CA488442D7
:1004600008D10121042000F025FB0021042000F028
:1004700021FB46E0C548844208D10121082000F054
:1004800019FB0021082000F015FB3AE0C048844227
:1004900008D10121102000F00DFB0021102000F0F8
:1004A00009FB2EE0BB48844208D10121202000F046
:1004B00001FB0021202000F0FDFA22E0B648844232
:1004C00008D10121402000F0F5FA0021402000F081
:1004D000F1FA16E0B148844208D10121802000F0F1
:1004E000E9FA0021802000F0E5FA0AE0AC488442F5
:1004F00007D10121801500F0DDFA0021A01500F0E0
:10050000D9FA10BD10B50121084600F0D3FA002138
:10051000012000F0CFFA10BD2DE9F0410246002580
:100520000026002000230024002791F803C00CF0CF
:100530000F0591F803C01CF0100F03D091F802C012
:100540004CEA0505B1F800C01CF0FF0F31D014686B
:1005500000202BE04FF0010C0CFA00F3B1F800C0C2
:100560000CEA03069E4220D183004FF00F0C0CFAD8
:1005700003F7BC4305FA03FC4CEA040491F803C0FA
:10058000BCF1280F06D14FF0010C0CFA00FCC2F8A8
:1005900014C00AE091F803C0BCF1480F05D14FF038
:1005A000010C0CFA00FCC2F810C0401C0828D1D382
:1005B0001460B1F800C0BCF1FF0F34DD54680020B6
:1005C0002EE000F1080C4FF0010808FA0CF3B1F826
:1005D00000C00CEA03069E4221D183004FF00F0CAD
:1005E0000CFA03F7BC4305FA03FC4CEA040491F847
:1005F00003C0BCF1280F05D100F1080C08FA0CF873
:10060000C2F8148091F803C0BCF1480F07D100F183
:10061000080C4FF0010808FA0CF8C2F81080401CD2
:100620000828CED35460BDE8F0814FF6FF710180F9
:10063000022181700421C170704702460020936836
:100640000B4201D0012000E000207047014688687D
:1006500080B2704702460020D3680B4201D00120CF
:1006600000E0002070470146C86880B27047016111
:100670007047416170470AB1016100E04161704714
:10068000C16070474FF480320A43826181618261A8
:1006900082698269704702460020424B18684FF613
:1006A0008073184040EA021008433E4B18607047C0
:1006B0003D49C8617047F0B50A4600230024002177
:1006C000002500F00046B6F1004F02D1354EF16929
:1006D00001E0344E7168C0F3034583B200F4401664
:1006E000B6F5401F08D121F070612E4E766826F0D5
:1006F00070662C4F7E6012E000F48016B6F5801F05
:1007000006D1032606FA05F4A14341F0706106E024
:10071000460D360103FA06F6B14341F0706122B18D
:10072000460D360103FA06F6314300F00046B6F1F5
:10073000004F02D11B4EF16101E01A4E7160F0BD15
:1007400030B500228B071C0F0F2303FA04F2154B60
:1007500008338C1053F824309343124C08348D1016
:1007600044F8253023468C1053F824308C07240F8E
:1007700000FA04F423430B4C08348D1044F8253060
:1007800030BD0A490860704700080140000C014074
:10079000001001400014014000180140001C0140FD
:1007A000002001400000014000002042DC00204207
:1007B000DC48006840F00100DA49086008464068FB
:1007C000D9490840D749486008460068D7490840D9
:1007D000D44908600846006820F480200860084674
:1007E000406820F4FE0048604FF41F0088607047A6
:1007F000CC49096821F48031CA4A11601146096860
:1008000021F480211160B0F5803F03D0B0F5802F36
:100810000ED106E0C349096841F48031C14A116034
:1008200007E0C049096841F4A021BE4A116000E018
:1008300000BF00BF704710B5014600220023002012
:100840004A11012A02D1B74C236806E0022A02D1DC
:10085000B44C236A01E0B34C636A01F01F02012427
:1008600094401C4201D0012000E0002010BD70B572
:1008700000240025002600BF3120FFF7DCFF0646DC
:10088000641CB4F5A06F01D0002EF5D03120FFF725
:10089000D2FF08B1012500E00025284670BD0146C1
:1008A0000020A04A106820F0F80040EAC100106063
:1008B00070479F490860704702460020994B58686E
:1008C00020F47C1042EA01031843964B58607047AD
:1008D00097490866704701460020924A506820F008
:1008E00003000843506070478E48406800F00C00D9
:1008F0007047014600208B4A506820F0F000084302
:100900005060704701460020864A506820F4E0603D
:1009100008435060704701460020824A506820F426
:10092000605040EAC1005060704729B17D4A527A58
:1009300002437C4B5A7206E07A4A527AC343DBB2D6
:100940001A40784B5A7270477A49086070470146DE
:100950000020744A506820F44040084350607047BB
:100960000021754A11706F4A82F82010012802D0C8
:10097000042808D103E001216F4A117004E0052129
:100980006D4A117000E000BF00BF70476B490860FE
:1009900070476449096A0143624A116270476749B6
:1009A00044390860704730B500210022002400233C
:1009B0005C4D6D6805F00C0121B1042905D00829B2
:1009C00023D105E05E4D056022E05E4D05601FE02D
:1009D000544D6D6805F47012524D6D6805F4803405
:1009E000022505EB92421CB9574D554305600BE0BB
:1009F0004C4D6D6815F4003F03D0544D55430560D0
:100A000002E0504D5543056002E04D4D056000BFCA
:100A100000BF444D6D6805F0F00109094C4D6B5C59
:100A20000568DD4045603F4D6D6805F4E061090AE9
:100A3000474D6B5C4568DD4085603A4D6D6805F457
:100A40006051C90A424D6B5C4568DD40C560354D5B
:100A50006D6805F44041890B3E4D6B5CC568B5FB84
:100A6000F3F5056130BD29B12E4A526902432D4B81
:100A70005A6104E02B4A526982432A4B5A617047FB
:100A800029B1284A92690243264B9A6104E0254A1B
:100A900092698243234B9A61704729B1214AD269F6
:100AA0000243204BDA6104E01E4AD26982431D4BA7
:100AB000DA61704729B11B4AD2680243194BDA60E8
:100AC00004E0184AD2688243164BDA60704729B1B5
:100AD000144A12690243134B1A6104E0114A126965
:100AE0008243104B1A6170471449403908607047BF
:100AF0000F49C86470470B49C87170470948406A7C
:100B000040F0807007494862704701460020054A5E
:100B100092680A4201D0012000E00020704701499C
:100B200088727047001002400000FFF8FFFFF6FED9
:100B300000004242D800424220100240800442425B
:100B400000127A00001BB70000093D00808D5B0099
:100B5000140000202400002010B50446FC48844204
:100B600009D101218803FFF7A5FF00214FF4804040
:100B7000FFF7A0FF32E0F748844209D10121480481
:100B8000FFF7A5FF00214FF40030FFF7A0FF25E09D
:100B9000F148844209D101218804FFF798FF002120
:100BA0004FF48020FFF793FF18E0EC48844209D10E
:100BB0000121C804FFF78BFF00214FF40020FFF74D
:100BC00086FF0BE0E648844208D101210805FFF7C3
:100BD0007EFF00214FF48010FFF779FF10BD2DE953
:100BE000F04786B005460E460024A24600BFA14647
:100BF0000027B08900B100BF2F462C8A4CF6FF7049
:100C00000440F08804432C82AC894EF6F310044073
:100C1000B08831890843718908430443AC81AC8AA8
:100C20004FF6FF400440B0890443AC8201A8FFF7AF
:100C3000BAFEC748874202D1DDF810A001E0DDF816
:100C40000CA0A88910F4004F08D00AEBCA0000EBF2
:100C50000A1031684900B0FBF1F807E00AEBCA005E
:100C600000EB0A1031688900B0FBF1F86420B8FB92
:100C7000F0F004012009642101FB1089A88910F417
:100C8000004F08D0322000EBC900B0FBF1F000F0BB
:100C90000700044308E0322000EB09106421B0FB98
:100CA000F1F000F00F0004432C8106B0BDE8F0879E
:100CB0004FF41651016000218180C18001810C2117
:100CC000418100218181704710B502460020108AC1
:100CD0004FF2FF0318400B884C8823438C88234332
:100CE000CC8823431843108210BD0021018041802D
:100CF0008180C180704721B1828942F40052828193
:100D000004E082894DF6FF731A4082817047F0B586
:100D100003460024002600250020A1F510676A3F45
:100D200000D100BF1846C1F3421401F01F0601278D
:100D300007FA06F5012C01D10C3004E0022C01D198
:100D4000103000E014301AB107682F43076002E04A
:100D50000768AF430760F0BD10B51AB1838A0B4333
:100D6000838204E0838ACC43A4B22340838210BDF3
:100D7000028A4FF6F0731A400282028A0A43028204
:100D8000704782894FF2FF731A40828182890A4339
:100D90008281704721B1828942F00202828104E09F
:100DA00082894FF6FD731A4082817047028A4FF69E
:100DB000DF731A400282028A0A430282704721B11D
:100DC000028A42F48042028204E0028A4BF6FF73F8
:100DD0001A4002827047C1F30802828070470146C0
:100DE0008888C0F308007047818941F00101818142
:100DF0007047028BD2B20283028B42EA0122028345
:100E00007047028B02F47F420283028B0A43028303
:100E1000704721B1828A42F02002828204E0828AF5
:100E20004FF6DF731A408282704721B1828A42F006
:100E30001002828204E0828A4FF6EF731A408282A7
:100E4000704721B1828A42F00802828204E0828ADD
:100E50004FF6F7731A408282704721B1828942F4BB
:100E60000042828103E08289C2F30E0282817047D0
:100E700021B1828A42F40062828204E0828A4FF2C7
:100E8000FF731A4082827047828A4FF6FB731A40C2
:100E90008282828A0A438282704721B1828A42F02A
:100EA0000202828204E0828A4FF6FD731A40828237
:100EB000704702460020B1F5007F00D100BF1388C3
:100EC0000B4201D0012000E00020704701F40072C5
:100ED000B2F5007F00D100BFCA430280704770B5F1
:100EE00002460024002300250020A1F510666A3E7A
:100EF00000D100BFC1F3421501F01F03012606FA1D
:100F000003F3012D02D19689334006E0022D02D170
:100F1000168A334001E0968A33400C12012606FA05
:100F200004F41688344013B10CB1012000E0002015
:100F300070BD10B500220023A1F510646A3C00D1F9
:100F400000BF0A1201249440A3B2DC43048010BD08
:100F5000003801400044004000480040004C004080
:100F600000500040002107E0002100E0491C42F24F
:100F700010729142FAD3401E0028F5D1704700004C
:100F800008B54FF4B060ADF8000003208DF8020002
:100F900010208DF8030069463B48FFF7BDFA012198
:100FA0000420FFF76DFD4FF48050ADF800000320E2
:100FB0008DF8020010208DF8030069463348FFF7D2
:100FC000ABFA08BD10B580212F48FFF750FB4FF456
:100FD000FA70FFF7C7FF80212B48FFF74AFB4FF459
:100FE00080712948FFF743FB4FF4FA70FFF7BAFF0F
:100FF0004FF480712448FFF73CFB4FF48061224896
:10100000FFF735FB4FF4FA70FFF7ACFF4FF4806148
:101010001D48FFF72EFB4FF480511C48FFF727FBBC
:101020004FF4FA70FFF79EFF4FF480511748FFF717
:1010300020FB10BD10B580211348FFF718FB4FF4BB
:10104000FA70FFF78FFF80210F48FFF712FB4FF474
:1010500080710D48FFF70BFB4FF4FA70FFF782FF2A
:101060004FF480710848FFF704FB4FF480510748A4
:10107000FFF7FDFA4FF4FA70FFF774FF4FF4805159
:101080000248FFF7F6FA10BD0010014000080140C9
:1010900010B586B0044601218803FFF7F1FC4FF438
:1010A0000070ADF8140003208DF8160018208DF89C
:1010B000170005A92448FFF72FFA4FF48060ADF818
:1010C000140004208DF8170005A91F48FFF724FA23
:1010D00025208DF8100003208DF811008DF81200E6
:1010E00001208DF8130004A8FFF74DF900940020AB
:1010F000ADF80400ADF80600ADF80800ADF80C003E
:101100000C20ADF80A0069461048FFF768FD01227F
:1011100040F225510D48FFF7FAFD01210B48FFF77A
:10112000EAFD06B010BD10B540F225510748FFF7A3
:10113000D6FE38B10548FFF752FEC4B22146034837
:10114000FFF749FE10BD00000008014000380140D3
:10115000064C074D06E0E06840F0010394E8070004
:1011600098471034AC42F6D3FEF7E6FF941100081E
:10117000B411000802E008C8121F08C1002AFAD101
:1011800070477047002001E001C1121F002AFBD107
:1011900070470000B4110008000000202800000083
:1011A00074110008DC110008280000200004000071
:1011B0008411000800A24A040000000000000000A2
:1011C00001020304060708090000000001020304ED
:0C11D000010203040607080902040608D7
:0400000508000131BD
:00000001FF
